:020000020000FC
:1000000000C02FEF2DBF28E02EBF0DD0E0E0F1E0C3
:10001000A8ECB1E015D01AD0E0E0F1E0A0E9B2E040
:100020000FD026D0FFCFE0E0F1E018EC05E2202F62
:10003000000F000F020F039501931A95C1F7089561
:1000400018EC21912D931A95E1F7089538ECE8EC1E
:10005000F1E0432F4A9559F000801180101410F4FC
:100060001082018231964A95B9F73A9581F7089541
:10007000A0E9B2E037ECEA2FFB2F51918A2F9B2F9A
:10008000432F2081251718F4522F8E2F9F2F319642
:100090004A95B9F72C915C93E82FF92F208311969C
:0600A0003A9549F70895AE
:00000001FF
